:1000000046C1000064C1000062C1000060C1000080
:100010005EC100005CC100005AC1000058C1000070
:1000200056C1000054C1000052C1000050C1000080
:100030004EC100004CC100004AC1000048C1000090
:1000400046C1000053C2000042C1000040C1000090
:100050003EC100003CC100003AC1000038C10000B0
:1000600036C1000034C1000032C1000030C10000C0
:100070002EC10000B9C100002AC1000028C1000043
:1000800026C1000024C1000022C1000020C10000E0
:100090001EC100001CC100001AC1000018C10000F0
:1000A00016C1000014C1000012C1000010C1000000
:1000B0000EC100000CC100000AC1000008C1000010
:1000C00006C1000004C1000002C1000000C1000020
:1000D000FEC00000FCC00000FAC00000F8C0000034
:1000E000F6C0000008000000BE922449123EABAAF0
:1000F000AA2ABECDCCCC4C3E00000080BEABAAAA42
:10010000AA3E00000000BF000000803F0000000089
:1001100000084178D3BB4387D1133D190E3CC3BDC2
:100120004282AD2B3E68EC8276BED98FE1A93E4C6F
:1001300080EFFFBE01C4FF7F3F00000000006E6142
:100140006E00696E660000407A10F35A00A0724E8D
:1001500018090010A5D4E80000E87648170000E46C
:100160000B54020000CA9A3B000000E1F5050000B4
:1001700080969800000040420F000000A086010019
:100180000000102700000000E803000000006400E9
:10019000000000000A000000000001000000000054
:1001A0002C76D888DC674F0823DFC1DFAE59E1B178
:1001B000B796E5E3E453C63AE651997696E8E6C287
:1001C0008426EB898C9B62ED407C6FFCEFBC9C9F8E
:1001D00040F2BAA56FA5F490055A2AF75C936B6CB0
:1001E000F9676DC11BFCE0E40D47FEF520E6B500A4
:1001F000D0ED902E0300943577050080841E080012
:1002000000204E0A000000C80C333333330F986EC1
:1002100012831141EF8D2114893BE65516CFFEE67E
:10022000DB18D1844B381BF77C1D901DA4BBE42444
:10023000203284725E228100C9F124ECA1E53D27C1
:100240006364696E6F70737578585B656667454661
:100250004700616E006E66696E69747900CDCCCC22
:100260003D0AD7233C17B7D13877CC2B329595E68A
:10027000241FB14F0A000020410000C84200401C6A
:100280004620BCBE4CCA1B0E5AAEC59D740011243C
:100290001FBECFEFD1E2DEBFCDBF00E00CBF12E04A
:1002A000A0E0B2E0E6E7F5E200E00BBF02C0079095
:1002B0000D92A833B107D9F722E0A8E3B2E001C05C
:1002C0001D92A434B207E1F76ED10C94B91298CE06
:1002D000CF93DF93CDB7DEB780E990E020E930E03F
:1002E000F9012081296AFC01208381E990E021E95C
:1002F00030E0F90120812860FC01208381E990E051
:1003000021E930E0F90120812360FC0120838DE2A6
:1003100090E02DE230E0F90120812863FC01208388
:100320000000DF91CF910895CF93DF93CDB7DEB773
:100330008CE790E020E4FC0120838EE790E023E04E
:10034000FC0120838AE790E02FE8FC012083789469
:100350000000DF91CF910895CF93DF93CDB7DEB743
:1003600081E890E021E830E0F90120812860FC017B
:1003700020838FE690E02FE630E0F90120812260B3
:10038000FC01208388E890E023E234EFFC01318314
:10039000208381E890E021E830E0F90120812460A9
:1003A000FC01208378940000DF91CF910895CF93D2
:1003B000DF93CDB7DEB784E290E024E230E0F901CC
:1003C0002081206EFC0120830000DF91CF910895F1
:1003D000CF93DF93CDB7DEB77BDFA6DFBDDFE7DFEF
:1003E0000000DF91CF9108951F920F9200905F005F
:1003F0000F92112400905B000F922F933F934F9325
:100400005F936F937F938F939F93AF93BF93EF937C
:10041000FF93CF93DF9300D000D0CDB7DEB78AE74C
:1004200090E02AE730E0F90120812F79FC01208358
:1004300080913C0290913D028230910589F0833099
:10044000910511F1019709F033C088E790E0FC01B4
:10045000808191819A83898389819A814FD328C031
:1004600088E790E0FC01808191819C838B8388E701
:1004700090E0FC0180819181909339028093380251
:100480008B819C819CD014C088E790E0FC01808126
:1004900091819E838D8388E790E0FC01808191812A
:1004A00090933B0280933A028D819E81A2D00000FE
:1004B000000026960FB6F894DEBF0FBECDBFDF91C9
:1004C000CF91FF91EF91BF91AF919F918F917F91CC
:1004D0006F915F914F913F912F910F9000925B0030
:1004E0000F9000925F000F901F9018951F920F922F
:1004F00000905F000F92112400905B000F922F93E9
:100500003F934F935F936F937F938F939F93AF939B
:10051000BF93EF93FF93CF93DF93CDB7DEB7809177
:10052000380290913902292F2F938F938EE092E019
:10053000892F8F938EE092E08F930E94FB110F9092
:100540000F900F900F9080913A0290913B02292FCB
:100550002F938F9385E192E0892F8F9385E192E02D
:100560008F930E94FB110F900F900F900F908CE1D2
:1005700092E00E940F120000DF91CF91FF91EF9166
:10058000BF91AF919F918F917F916F915F914F91AB
:100590003F912F910F9000925B000F9000925F00AF
:1005A0000F901F901895CF93DF93CDB7DEB73BD058
:1005B0000FDF80913C0290913D0297D0FACFCF930C
:1005C000DF931F921F92CDB7DEB79A83898387E4AA
:1005D00090E02981FC01208388E890E029813A811C
:1005E000FC013183208300000F900F90DF91CF91A9
:1005F0000895CF93DF931F921F92CDB7DEB79A83F2
:10060000898387E490E02981FC01208388E890E0D9
:1006100029813A81FC013183208300000F900F90E3
:10062000DF91CF910895CF93DF93CDB7DEB780E010
:1006300092E0909341028093400280E092E0909398
:100640003F0280933E0285EC90E0FC01108284EC36
:1006500090E027E6FC01208381EC90E028E1FC019A
:10066000208382EC90E026E0FC0120830000DF91F3
:10067000CF910895CF93DF931F92CDB7DEB78983D3
:10068000000080EC90E0FC018081882F90E0807277
:100690009927892BB1F386EC90E02981FC01208316
:1006A00000000F90DF91CF910895CF93DF931F92B9
:1006B000CDB7DEB7000080EC90E0FC01808188239C
:1006C000D4F786EC90E0FC018081898389818A30AF
:1006D00019F48FEF9FEF05C08981CCDF8981882FC6
:1006E00090E00F90DF91CF910895CF93DF93CDB736
:1006F000DEB7AA970FB6F894DEBF0FBECDBF8091CC
:100700003C0290913D028230910509F48FC0833004
:10071000910509F413C1019709F0A1C18CE790E09C
:100720002CE730E0F90120812E7FFC0120838AE74D
:1007300090E02AE730E0F90120812066FC01208367
:1007400080E090E0A8E4B2E489879A87AB87BC8711
:1007500020E030E04AE755E469857A858B859C8501
:100760007FD4DC01CB018D879E87AF87B88B20E0DB
:1007700030E040E85FE36D857E858F859889DDD226
:1007800088232CF481E090E09A8B898B3BC020E099
:100790003FEF4FE757E46D857E858F85988917D4A5
:1007A00018163CF520E030E040E251E469857A8596
:1007B0008B859C8555D4DC01CB01BC01CD0129D3AF
:1007C000DC01CB019A8B898B0FC080E991E09C8B77
:1007D0008B8B8B899C890197F1F79C8B8B8B8989FB
:1007E0009A8901979A8B898B89899A89892B69F7CC
:1007F00013C06D857E858F8598890BD3DC01CB0175
:100800009A8B898B89899A899E8B8D8B8D899E89FC
:100810000197F1F79E8B8D8B80913C0290913D0268
:10082000019690933D0280933C0229C18CE790E0B1
:100830002CE730E0F90120812160FC0120838AE768
:1008400090E02AE730E0F90120812066FC01208356
:1008500080E090E0A8E4B2E489839A83AB83BC8310
:1008600020E030E04AE755E469817A818B819C8100
:10087000F7D3DC01CB018F8B988FA98FBA8F20E043
:1008800030E040E85FE36F89788D898D9A8D55D28D
:1008900088232CF481E090E09C8F8B8F3BC020E07C
:1008A0003FEF4FE757E46F89788D898D9A8D8FD30D
:1008B00018163CF520E030E040E251E469817A818D
:1008C0008B819C81CDD3DC01CB01BC01CD01A1D2B8
:1008D000DC01CB019C8F8B8F0FC080E991E09E8F54
:1008E0008D8F8D8D9E8D0197F1F79E8F8D8F8B8DC6
:1008F0009C8D01979C8F8B8F8B8D9C8D892B69F79D
:1009000013C06F89788D898D9A8D83D2DC01CB01DC
:100910009C8F8B8F8B8D9C8D98A38F8F8F8D98A1A3
:100920000197F1F798A38F8F80913C0290913D023F
:10093000019690933D0280933C02A1C08CE790E029
:100940002CE730E0F90120812E7FFC0120838CE729
:1009500090E02CE730E0F90120812260FC01208347
:100960008AE790E02AE730E0F90120812066FC0167
:10097000208380E090E0A8E4B2E48D839E83AF837F
:10098000B88720E030E04AE755E46D817E818F81B1
:10099000988566D3DC01CB0189A39AA3ABA3BCA342
:1009A00020E030E040E85FE369A17AA18BA19CA13F
:1009B000C4D188232CF481E090E09EA38DA33BC09A
:1009C00020E03FEF4FE757E469A17AA18BA19CA1FA
:1009D000FED218163CF520E030E040E251E46D8193
:1009E0007E818F8198853CD3DC01CB01BC01CD0198
:1009F00010D2DC01CB019EA38DA30FC080E991E052
:100A000098A78FA38FA198A50197F1F798A78FA317
:100A10008DA19EA101979EA38DA38DA19EA1892B3F
:100A200069F713C069A17AA18BA19CA1F2D1DC0165
:100A3000CB019EA38DA38DA19EA19AA789A789A56D
:100A40009AA50197F1F79AA789A780913C02909106
:100A50003D02019690933D0280933C0210C08CE7CA
:100A600090E02CE730E0F90120812D7FFC0120830C
:100A700081E090E090933D0280933C0200000000F2
:100A8000AA960FB6F894DEBF0FBECDBFDF91CF910F
:100A90000895CF93DF9300D01F92CDB7DEB769835F
:100AA0007A838B839C8320E030E048EC51E46981B9
:100AB0007A818B819C818BD218163CF488E990E076
:100AC0002FEF30E0FC013183208320E030E048EB61
:100AD00051E469817A818B819C812FD188230CF02C
:100AE00005C088E990E0FC011182108200000F909F
:100AF0000F900F900F90DF91CF910895CF93DF93D8
:100B0000CDB7DEB764970FB6F894DEBF0FBECDBF8A
:100B10009C8B8B8B8B899C899A83898389819A8111
:100B2000CC01A0E0B0E0BC01CD019FD1DC01CB0144
:100B300020E030E040EA50E4BC01CD0191D2DC017C
:100B4000CB0120E030E040E854E4BC01CD01F9D015
:100B5000DC01CB018B839C83AD83BE8389819A8129
:100B6000CC01A0E0B0E0BC01CD017FD1DC01CB0124
:100B70009C01AD0160E070E080E894E4E2D0DC012B
:100B8000CB0120E030E040E85FE3BC01CD0170D054
:100B9000DC01CB0120E030E44CE156E4BC01CD01A6
:100BA0005FD2DC01CB01BC01CD011AD2DC01CB014B
:100BB0008F839887A987BA8729E537E44CEB53E3FD
:100BC0006F81788589859A854BD2DC01CB012F8195
:100BD000388549855A85BC01CD0142D2DC01CB0163
:100BE00023E73FE745E759E3BC01CD0142D0DC01F3
:100BF000CB012F81388549855A85BC01CD0130D282
:100C0000DC01CB012BEE3FEF43E95AE3BC01CD0100
:100C100030D0DC01CB019C01AD0160E070E080E8E8
:100C20009FE38FD0DC01CB018B879C87AD87BE878C
:100C300023E333E948E853E46B857C858D859E8505
:100C400017D0DC01CB018F87988BA98BBA8B8F854E
:100C50009889A989BA89BC01CD011BDF000064967F
:100C60000FB6F894DEBF0FBECDBFDF91CF910895D0
:100C70005058BB27AA270ED070C161D130F066D181
:100C800020F031F49F3F11F41EF456C10EF4E095AC
:100C9000E7FB4CC1E92F72D180F3BA1762077307E3
:100CA0008407950718F071F49EF58AC10EF4E0955B
:100CB0000B2EBA2FA02D0B01B90190010C01CA0116
:100CC000A0011124FF27591B99F0593F50F4503EC1
:100CD00068F11A16F040A22F232F342F4427585FB3
:100CE000F3CF469537952795A795F0405395C9F7CB
:100CF0007EF41F16BA0B620B730B840BBAF0915083
:100D0000A1F0FF0FBB1F661F771F881FC2F70EC021
:100D1000BA0F621F731F841F48F4879577956795F4
:100D2000B795F7959E3F08F0B3CF9395880F08F0DD
:100D30009927EE0F979587950895D4D008F481E010
:100D400008950CD00AC102D140F0F9D030F021F45E
:100D50005F3F19F0EBC0511134C1EEC00FD198F3D1
:100D60009923C9F35523B1F3951B550BBB27AA272C
:100D700062177307840738F09F5F5F4F220F331F9E
:100D8000441FAA1FA9F333D00E2E3AF0E0E830D06A
:100D900091505040E695001CCAF729D0FE2F27D06D
:100DA000660F771F881FBB1F261737074807AB073B
:100DB000B0E809F0BB0B802DBF01FF2793585F4FB0
:100DC0002AF09E3F510568F0B1C0FBC05F3FECF3D5
:100DD000983EDCF3869577956795B795F7959F5F75
:100DE000C9F7880F911D9695879597F90895E1E0C9
:100DF000660F771F881FBB1F621773078407BA0728
:100E000020F0621B730B840BBA0BEE1F88F7E09582
:100E10000895BCD088F09F5790F0B92F9927B7510B
:100E2000A0F0D1F0660F771F881F991F1AF0BA95AE
:100E3000C9F712C0B13081F0C3D0B1E00895C0C08D
:100E4000672F782F8827B85F39F0B93FCCF38695A4
:100E500077956795B395D9F73EF490958095709501
:100E600061957F4F8F4F9F4F0895E89409C097FB7E
:100E70003EF490958095709561957F4F8F4F9F4F71
:100E80009923A9F0F92F96E9BB279395F6958795B5
:100E900077956795B795F111F8CFFAF4BB0F11F478
:100EA00060FF1BC06F5F7F4F8F4F9F4F16C088231F
:100EB00011F096E911C0772321F09EE8872F762F55
:100EC00005C0662371F096E8862F70E060E02AF096
:100ED0009A95660F771F881FDAF7880F9695879582
:100EE00097F90895990F0008550FAA0BE0E8FEEF57
:100EF00016161706E807F907C0F012161306E407DE
:100F0000F50798F0621B730B840B950B39F40A26D6
:100F100061F0232B242B252B21F408950A2609F4B4
:100F2000A140A6958FEF811D811D089597F99F67B8
:100F300080E870E060E008959FEF80EC0895002461
:100F40000A941616170618060906089500240A942E
:100F500012161306140605060895092E0394000CB4
:100F600011F4882352F0BB0F40F4BF2B11F460FF43
:100F700004C06F5F7F4F8F4F9F4F089557FD90586C
:100F8000440F551F59F05F3F71F04795880F97FB4D
:100F9000991F61F09F3F79F0879508951216130607
:100FA0001406551FF2CF4695F1DF08C01616170636
:100FB0001806991FF1CF869571056105089408956B
:100FC000E894BB2766277727CB0197F908958ADF36
:100FD00008F48FEF08950EF0A6C0AECF6894A6CFA8
:100FE000D5DFC8F39923D1F3C6F3DF93CF931F93D3
:100FF0000F93FF92C92FDD2788232AF02197660FD0
:10100000771F881FDAF720E030E040E85FEB9FE3CE
:10101000883920F0803E30F021968F772ADEE4EE8A
:10102000F0E003C026DEE1E1F1E08BD08B01BE01F0
:10103000EC01FB2E6F5771097595771F880B990B83
:1010400016DF28E132E741E35FE316D0AF2D9801C8
:10105000AE01FF900F911F91CF91DF911BDE7DCFED
:101060000BD07BCF6CDF28F071DF18F0952309F0EF
:101070005DCF62CF1124A5CF81DFA0F3959FD1F37F
:10108000950F50E0551F629FF001729FBB27F00D36
:10109000B11D639FAA27F00DB11DAA1F649F66278B
:1010A000B00DA11D661F829F2227B00DA11D621FDA
:1010B000739FB00DA11D621F839FA00D611D221F94
:1010C000749F3327A00D611D231F849F600D211D78
:1010D000822F762F6A2F11249F5750408AF0E1F01B
:1010E00088234AF0EE0FFF1FBB1F661F771F881F64
:1010F00091505040A9F79E3F510570F017CF61CF36
:101100005F3FECF3983EDCF3869577956795B7954E
:10111000F795E7959F5FC1F7FE2B880F911D969578
:10112000879597F908959F3F31F0915020F4879566
:1011300077956795B795880F911D9695879597F93F
:101140000895DF93CF931F930F93FF92EF92DF9257
:101150007B018C01689405C0DA2EEF018DDFFE0162
:10116000E894A5912591359145915591AEF3EF0104
:1011700091DDFE019701A801DA9479F7DF90EF90F5
:10118000FF900F911F91CF91DF9108952F923F9281
:101190004F925F926F927F928F929F92AF92BF9287
:1011A000CF92DF92EF92FF920F931F93CF93DF9333
:1011B000CDB7DEB760970FB6F894DEBF0FBECDBFD8
:1011C0007C011B016A01FC0117821682838181FF69
:1011D0002BC39E012F5F3F4F3901F7019381F1012E
:1011E00093FD859193FF81911F01882309F418C312
:1011F000853239F493FD859193FF81911F018532EA
:1012000039F4B70190E00E94BF1156016501E5CFA6
:1012100010E0512C912CFFE1F915D8F08B3279F0C8
:1012200038F4803279F08332A1F4F92DF0612EC0C8
:101230008D3261F0803369F4292D21602DC0392D64
:101240003260932E892D8460982E2AC0E92DE860A3
:1012500015C097FC2DC020ED280F2A3088F496FE8B
:1012600006C03AE0139F200D1124122F19C08AE006
:10127000589E200D1124522EE92DE0629E2E10C0A2
:101280008E3231F496FCCCC2F92DF0649F2E08C04A
:101290008C3621F4292D2068922E02C0883641F424
:1012A000F10193FD859193FF81911F018111B3CFCE
:1012B0009BEB980F933020F4992D9061805E07C0CE
:1012C0009BE9980F933008F059C1992D9F7E96FFA6
:1012D00016E09F73992E853619F49064992E08C0F4
:1012E000863621F4392F3068932E02C01111115027
:1012F00097FE07C01C3350F444244394410E27E06A
:101300000BC0183038F027E017E005C027E09CE359
:10131000492E02C0212F412C560184E0A80EB11C99
:10132000F6016081718182819381042DA301E0D651
:101330006C01F981FC87F0FF02C0F3FF06C091FC4D
:1013400006C092FE06C000E205C00DE203C00BE23B
:1013500001C000E08C858C7019F0011143C280C27D
:1013600097FE10C04C0CFC85F4FF04C08A818133C9
:1013700009F44A94141474F528E0241578F588E0EB
:10138000482E2CC096FC2AC0812F90E08C159D051C
:101390009CF03CEFC3163FEFD30674F0892D8068B4
:1013A000982E0AC0E2E0F0E0EC0FFD1FE10FF11D06
:1013B0008081803319F411501111F4CF97FE0EC0C3
:1013C00044244394410E812F90E0C816D9062CF492
:1013D0001C1904C04424439401C010E097FE06C0C9
:1013E0001C141D0434F4C601019605C085E090E08C
:1013F00002C081E090E001110196112331F0212F0C
:1014000030E02F5F3F4F820F931F252D30E0821772
:10141000930714F4581A01C0512C892D897041F496
:10142000552031F0B70180E290E0A9D75A94F8CF67
:10143000002321F0B701802F90E0A1D793FC08C0D2
:10144000552031F0B70180E390E099D75A94F8CF56
:1014500097FE4AC04601D7FE02C0812C912CC601DE
:1014600088199909F301E80FF91FFE87ED879601A6
:1014700024193109388B2F87012F10E01195019520
:1014800011093FEF8316930621F4B7018EE290E035
:1014900076D7C814D9044CF08F859889881599059A
:1014A00024F4ED85FE85818101C080E3F1E08F1A8F
:1014B00091082D853E852F5F3F4F3E872D878016F3
:1014C000910624F0B70190E05AD7DBCFC814D904B5
:1014D00041F49A81963320F4953319F43C8534FF16
:1014E00081E3B70190E048C08A81813319F09C857F
:1014F0009F7E9C87B70190E042D7111105C094FCF4
:1015000016C085E690E015C0B7018EE290E037D7AF
:101510001E5F82E001E0080FF301E80FF11D8081FA
:10152000B70190E02CD7802F0113F4CFE8CF85E4EA
:1015300090E0B70124D7D7FC06C0C114D10441F410
:10154000EC85E4FF05C0D194C194D1088DE201C0BF
:101550008BE2B70190E013D780E32AE0C216D104F2
:101560002CF08F5FFAE0CF1AD108F7CFB70190E0E7
:1015700006D7B701C601C09602D749C1833631F0FC
:10158000833779F0833509F052C01FC0560132E02D
:10159000A30EB11CF6018081898301E010E0630194
:1015A00011C05601F2E0AF0EB11CF601C080D1802F
:1015B00096FE03C0612F70E002C06FEF7FEFC6019F
:1015C00095D68C01F92DFF7713C0560122E0A20EAB
:1015D000B11CF601C080D18096FE03C0612F70E07F
:1015E00002C06FEF7FEFC60176D68C01F92DF0684F
:1015F0009F2EF3FD18C0852D90E00817190798F469
:10160000B70180E290E0BBD65A94F5CFF60197FC83
:10161000859197FE81916F01B70190E0B0D651108E
:101620005A94015011090115110581F7F0C0843653
:1016300011F0893659F5560197FE09C024E0A20E33
:10164000B11CF60160817181828193810AC0F2E050
:10165000AF0EB11CF60160817181072E000C880B62
:10166000990BF92DFF769F2E97FF09C090958095D5
:10167000709561957F4F8F4F9F4FF0689F2E2AE0A6
:1016800030E0A30115D7C82EC6183EC0092D8537F6
:1016900021F40F7E2AE030E01DC0097F8F3691F0E3
:1016A00018F4883559F0BCC0803719F0883711F02C
:1016B000B7C0006104FF09C0046007C094FE08C001
:1016C000066006C028E030E005C020E130E002C03E
:1016D00020E132E0560107FF09C084E0A80EB11CEA
:1016E000F601608171818281938108C0F2E0AF0EC2
:1016F000B11CF6016081718180E090E0A301D8D631
:10170000C82EC6180F77902E96FE0BC0092D0E7F9F
:10171000C11650F494FE0AC092FC08C0092D0E7E3A
:1017200005C0DC2C092D03C0DC2C01C0D12E04FF28
:101730000DC0FE01EC0DF11D8081803311F4097E96
:1017400009C002FF06C0D394D39404C0802F8678CA
:1017500009F0D39403FD10C000FF06C01C2DD51462
:1017600078F4150D1D190CC0D51450F4B70180E2A2
:1017700090E005D6D394F8CFD51410F45D1801C0CD
:10178000512C04FF0FC0B70180E390E0F8D502FFB1
:1017900016C001FD03C088E790E002C088E590E034
:1017A000B7010CC0802F867851F001FF02C08BE298
:1017B00001C080E207FD8DE2B70190E0E0D5C116DF
:1017C00030F4B70180E390E0DAD51150F8CFCA9435
:1017D000F301EC0DF11D8081B70190E0D0D5C1106F
:1017E000F6CF15C0F4E0F51550F584E0581A93FED5
:1017F0001EC0011125C02C8523FF27C00EE311E078
:10180000392D3071932EF8018491811121C055201A
:1018100009F4FCCCB70180E290E0B1D55A94F7CF3F
:10182000F7018681978123C08FEF9FEF20C0B7011A
:1018300080E290E0A4D55A945110F9CFDACF512C20
:10184000B701802F90E09BD5D6CF02E411E0D8CF2E
:1018500091108052B70190E092D50F5F1F4FD3CF08
:1018600023E0251510F483E0C1CF512CC4CF60963E
:101870000FB6F894DEBF0FBECDBFDF91CF911F91A1
:101880000F91FF90EF90DF90CF90BF90AF909F901F
:101890008F907F906F905F904F903F902F90089522
:1018A00020FD09C0FC0123FD05C022FF02C0738397
:1018B000628351834083089544FD17C046FD17C0DD
:1018C000AB01BC01DA01FB01AA0FBB1FEE1FFF1F1A
:1018D0001094D1F74A0F5B1F6E1F7F1FCB01BA0117
:1018E000660F771F881F991F09C033E001C034E0DD
:1018F000660F771F881F991F3150D1F7620F711D36
:10190000811D911D08950F931F93CF93DF938C0139
:10191000C801F7D4EC0197FD06C0C2D4892BC1F7EA
:10192000B801CE01ACD5CE01DF91CF911F910F91BF
:1019300008958F929F92AF92BF92CF92DF92EF92D3
:10194000FF920F931F93CF93DF937C018B016A016A
:10195000D22FD7D49C0133272B32310521F02D32E1
:10196000310551F4D0680150110911F480E064C0D0
:10197000C701C7D497FDFACFCD2FCD7F2D2F207370
:1019800009F58033F9F4580181E0A81AB10809F487
:1019900040C0C701B6D497FD3CC09C012F7D3327C2
:1019A0002835310549F4C2640250110991F1C7018B
:1019B000A8D497FF07C02DC0D6FF02C0C26001C0E7
:1019C000C2618501812C912C540120ED280F283013
:1019D00078F0C4FF03C0B70152D518C02A3040F0D8
:1019E000C6FFF9CF2F7D3FEE320F3630A0F72750DC
:1019F0004C2FC501B40160DF4B015C01C260015096
:101A0000110951F0C7017DD497FFDFCFC1FD04C09C
:101A1000ADCF812C912C5401C7FF08C0B094A09485
:101A200090948094811C911CA11CB11C2C2FB50199
:101A3000A401C60135DF81E0DF91CF911F910F91A5
:101A4000FF90EF90DF90CF90BF90AF909F908F90DE
:101A500008954F925F926F927F928F929F92AF9272
:101A6000BF92CF92DF92EF92FF920F931F93CF938B
:101A7000DF93CDB7DEB7A0970FB6F894DEBF0FBEE9
:101A8000CDBF5C014B017A018E010F5F1F4F6801D2
:101A900080E2F80111928A95E9F7F501538040E060
:101AA00050E0612C90E0712CA1E0B0E0F90153FC12
:101AB000859153FE81918F01482E9F01811103C0B2
:101AC00080E090E094C08E3519F44115510551F134
:101AD000672D70E0641775073CF48D3561F18D3228
:101AE00019F4992311F103C0992309F46BC0842DD3
:101AF000869586958695F601E80FF11D842D8770F1
:101B00008D0102C0000F111F8A95E2F7C801908174
:101B1000892B8083641459F0461410F44394E7CF62
:101B20004A94E5CF7724739403C091E001C090E01C
:101B30004F5F5F4FBBCF992319F08E8180628E83F8
:101B4000711003C07724739419C0F6019E012F5DB4
:101B50003F4F8081809581932E173F07D1F7F2CFB9
:101B6000E114F10431F0F7018083B7016F5F7F4F1B
:101B70007B0171E0871A9108712CE9F0C501C1D38E
:101B800097FD17C0FC01FF2723E0F595E7952A95FF
:101B9000E1F7EC0DFD1D208130E0AC0147705527C9
:101BA00002C0359527954A95E2F720FDD9CFB501BA
:101BB00066D4711085CFE114F10411F0F7011082A1
:101BC000C80115C0682F669566956695F601E60F03
:101BD000F11D682F67708D0102C0000F111F6A95FB
:101BE000E2F7B8017081672B6083682EA1CFA096C1
:101BF0000FB6F894DEBF0FBECDBFDF91CF911F911E
:101C00000F91FF90EF90DF90CF90BF90AF909F909B
:101C10008F907F906F905F904F9008952F923F929A
:101C20004F925F926F927F929F92AF92BF92CF92AC
:101C3000DF92EF92FF920F931F93CF93DF936C018C
:101C40008B011A015ED3EC0199278B32910529F0A3
:101C50008D9779F430E8932E01C0912C0150110931
:101C600011F480E0FEC0C6014CD3EC0197FF02C026
:101C7000F8CF912CCE011CD38936910531F08E36E8
:101C8000910581F5C2E5D2E002C0C5E5D2E021961A
:101C9000FE013197B490BB20B1F00150110979F0E9
:101CA000C6012FD37C0197FD0AC002D39927EB2DE3
:101CB000F0E08E179F0759F3B601C701E0D3C8556E
:101CC000D24079F603C0C555D24029F080E090E0BB
:101CD000A0E8BFE704C080E090E0A0ECBFE7BC0153
:101CE000CD01AFC0412C512C3201E12CF12C2C2F15
:101CF00020532A3008F5E92DE260BE2E892D887028
:101D000092FE06C081111FC0FFEFEF1AFF0A1BC031
:101D1000882319F081E0E81AF10840E2C301B2011A
:101D2000CBDD2B013C01683979498949994158F04B
:101D3000F92DF660BF2E07C02E3F81F493FC0EC034
:101D4000292D2860B22E0150110939F0C601D9D2CF
:101D5000EC019B2C97FFCBCF01C09B2C91FE81CF38
:101D6000CE018F7D99278534910509F03EC0580139
:101D700081E0A81AB10809F474CFC601C2D2EC01FF
:101D800097FD6FCF99278B32910529F08D9761F4DC
:101D9000E92DE0619E2E5801F2E0AF1AB10809F476
:101DA00060CFC601AED2EC01CE01C0970A9708F011
:101DB00058CF8501A12CB12CB501BB0C880B990B18
:101DC0002C2F205340E278DD5B010150110931F0E6
:101DD000C60197D2EC01C0970A9770F394FE03C036
:101DE000B194A194B108EA0CFB1C012B29F0D7FD9A
:101DF00003C0B601CE0143D3C301B20136D8F7FE0A
:101E000006C0F194E194F108C1E7D2E002C0C9E84C
:101E1000D2E06E0128E1C21AD10800E210E0E0161B
:101E2000F10648F0FE01259135914591549118D95C
:101E3000E01AF10AF4CF249716950795CC16DD0623
:101E400071F797FE05C0DC01CB01B058BC01CD0194
:101E50002114310429F0F10160837183828393831B
:101E600081E0DF91CF911F910F91FF90EF90DF9074
:101E7000CF90BF90AF909F907F906F905F904F906A
:101E80003F902F9008956F927F928F929F92AF9282
:101E9000BF92CF92DF92EF92FF920F931F93CF9357
:101EA000DF935C01EB014A01FC0117821682612C71
:101EB000F5010381FE0103FD859103FF8191182F38
:101EC000EF01882309F400C190E0EAD1892B19F0D1
:101ED000C50119DDEDCF153241F4FE0103FD159169
:101EE00003FF1191EF01153271F4C5010AD297FD7C
:101EF000E9C0412F50E09C01332724173507C1F278
:101F0000B501BDD2E1C01A3241F403FD159103FFC2
:101F10001191EF017724739401C0712CE12CF12C05
:101F200020ED210F2A3080F4F72DF2607F2EB701CB
:101F300080E090E040E2C0DC7B01FE0103FD1591F2
:101F400003FF1191EF01ECCF71FE04C0E114F10425
:101F500021F4BAC0EE24EA94FE2C183619F01C368F
:101F600061F014C0FE0103FD159103FF1191EF0113
:101F7000183661F4872D8860782E972D9460792E1D
:101F8000FE0103FD159103FF1191EF01112309F4E7
:101F90009BC0612F70E080E492E092D1892B09F41C
:101FA00093C070FC07C0F401C080D180C4010296C8
:101FB0004C0102C0C12CD12C1E3649F4F5014681DA
:101FC000578160E070E0272DC6016ADC71CF1336BF
:101FD000B1F471FC03C0EE24E394F12CC50191D15E
:101FE00097FD70C0C114D10429F0F6018083C601A9
:101FF00001966C0191E0E91AF10881F75FC01B3589
:1020000051F49E01A601B701C50123DDEC01892B26
:1020100009F054C04EC0C50176DC97FD53C01F3691
:10202000C9F140F4143691F11936B9F1183509F0B7
:102030003AC028C01337A9F018F4103719F133C08B
:10204000153721F11837F1F02EC0C114D10429F051
:10205000F6010083C60101966C0191E0E91AF108CE
:1020600059F0C5014ED18C0197FD06C019D1892BBD
:1020700061F3B501C80103D2C114D104F9F0F6012E
:1020800010821CC0F72DF0647F2E07C0872D806260
:10209000782E03C0972D9061792E272DA601B701C8
:1020A000C50147DC04C0A601B701C501B7DD811138
:1020B00005C0F5018381807329F406C070FCF8CE59
:1020C0006394F6CE662019F0862D90E002C08FEF63
:1020D0009FEFDF91CF911F910F91FF90EF90DF90D5
:1020E000CF90BF90AF909F908F907F906F9008950A
:1020F000283008F027E03327DA01990F311D87FDDA
:10210000916000966105710539F432602E5F3D9350
:1021100030E32A95E1F708959F3F30F0803871054C
:10212000610509F03C5F3C5F3D93913008F08068A9
:10213000911DDF93CF931F930F93FF92EF92192F6F
:10214000987F9695E92F96959695E90FFF27E0568B
:10215000FE4F99273327EE24FF24A701E7010590BE
:102160000894079428F4360FE71EF81E491F511DE6
:10217000660F771F881F991F0694A1F70590079493
:1021800028F4E70EF81E491F561FC11D770F881F40
:10219000991F661F0694A1F70590079428F4F80E7E
:1021A000491F561FC71FD11D880F991F661F771F14
:1021B0000694A1F70590079420F4490F561FC71FF6
:1021C000D81F990F661F771F881F0694A9F784915F
:1021D0001095177041F0D695C79557954795F79488
:1021E000E7941A95C1F7E6E4F1E06894159015912B
:1021F00035916591959105907FE27395E118F10A0B
:10220000430B560BC90BD009C0F7E10CF11E431F5D
:10221000561FC91FD01D7EF4703311F48A95E6CF86
:10222000E894015030F0080F0AF40027021708F470
:10223000202F2395022F7A3328F079E37D932A9576
:10224000E9F710C07D932A9589F6069497956795CE
:10225000379517951794E118F10A430B560BC90BE4
:10226000D00998F023957E9173957A3308F070E346
:102270007C932013B8F77E9170617D9330F0839545
:1022800071E37D9370E32A95E1F71124EF90FF90BD
:102290000F911F91CF91DF91992787FD9095089518
:1022A000911164C1803219F089508550D0F708959A
:1022B0009111089581548A5108F4805E855A0895D9
:1022C000FC010590061621F00020D9F7C001089501
:1022D0003197CF010895FC010590615070400110C5
:1022E000D8F7809590958E0F9F1F0895FC0161503F
:1022F000704001900110D8F7809590958E0F9F1F28
:102300000895CF93DF93EC012B8120FF33C026FF8C
:102310000AC02F7B2B838E819F8101969F838E83A2
:102320008A8190E029C022FF0FC0E881F981808175
:10233000082E000C990B009719F420622B831AC009
:102340003196F983E8830EC0EA85FB85199597FFDE
:1023500009C02B81019611F080E201C080E1822B3F
:102360008B8308C02E813F812F5F3F4F3F832E8399
:10237000992702C08FEF9FEFDF91CF9108950F93C0
:102380001F93CF93DF93FB01238121FD03C08FEFC8
:102390009FEF2CC022FF16C04681578124813581D2
:1023A0004217530744F4A081B1819D012F5F3F4F35
:1023B000318320838C93268137812F5F3F4F378372
:1023C000268314C08B01EC01FB010084F185E02D14
:1023D0001995892BE1F6D80116968D919C91179746
:1023E000019617969C938E931697CE01DF91CF910D
:1023F0001F910F910895CF93DF93CDB7DEB7AE0154
:102400004A5F5F4FFA0161917191AF018091400283
:10241000909141020E94C608DF91CF9108950F93D9
:102420001F93CF93DF93E0914002F091410223810B
:1024300021FF1BC08C01D0E0C0E0F80181918F0129
:102440006091400270914102DB011896ED91FC9180
:102450001997882331F01995892B79F3DFEFCFEFA6
:10246000ECCF8AE01995892B19F08FEF9FEF02C00E
:102470008D2F9C2FDF91CF911F910F910895FB011C
:10248000238120FF12C026FD10C08F3F3FEF93072E
:1024900061F082832F7D2064238326813781215040
:1024A000310937832683992708958FEF9FEF089589
:1024B000FA01AA27283051F1203181F1E8946F9375
:1024C0006E7F6E5F7F4F8F4F9F4FAF4FB1E03ED01B
:1024D000B4E03CD0670F781F891F9A1FA11D680FB9
:1024E000791F8A1F911DA11D6A0F711D811D911DEC
:1024F000A11D20D009F468943F912AE0269F112461
:102500003019305D3193DEF6CF010895462F4770C4
:10251000405D4193B3E00FD0C9F7F6CF462F4F701F
:10252000405D4A3318F0495D31FD4052419302D07D
:10253000A9F7EACFB4E0A695979587957795679523
:10254000BA95C9F700976105710508959B01AC0123
:102550000A2E06945795479537952795BA95C9F74A
:10256000620F731F841F951FA01D08959927882748
:062570000895F894FFCF6E
:1025760000000003000000003A0355030000256434
:10258600202D790A002564202D780A002D2D2D2D69
:102596002D2D2D2D2D2D2D2D2D2D2D2D2D2D2D2D65
:0825A6002D2D2D2D2D2D2D00F2
:00000001FF
